S10500003E2894
S1130010871503119D150E3034280F303428100B2A
S123002081150F3C9B1D1E349B191B16000B0335010B9B159C151B1303301E3C03341E38F4
S12300409B1D1E349B191B169C151C130330063D033406399B1D1E349B191B169C151C1312
S12300600330063E0334063A8E3039288F3039288F3C1D118315871107110D0082207C20C3
S123008063206220452041280C000636492897304D28100B9915270B9A1519161A17033156
S12300A0612806398E38010B89150E3C0B000000000000000000100B9915270B9A158E3C3B
S12300C00E380C000C001E3C0C00400B8415300B8715841B801D871A6928801D871D0C00E2
S12300E0851D040B8615C51D030BC615FF0B8B15FF0B8D158C1D0C00040BC115100B811544
S11501000E380C008E3F652070208E3B150B88170C0021
S305000060603A
S903FFFFFE
