S10D00000E008E1D8F1DC41D2D2857
S11300109115031690150F3028280F3C1A3AA3198E
S1230020040B231203302828A31D1338171600080331971BA019030B201203302828A01D96
S12300401E16000803319E1B1F16000803319F1B8F1D1016831511160D00C51DC61D851D43
S1230060861D500B92150E00921A33288121AA21B4210E005820B220342139289435392848
S123008093363928133739289337392817160008033139281E160008033139281F16000884
S12300A003313928000000000B000000000039280E001330B128133C981D063218388631CE
S12300C0983886321839181600080335A828181619100331A2289519040B15120330B128C0
S12300E0040B951514377628143B80289437B1289619600B16120330B128600B9615943B8C
S12301007A0B97151816010803358F2818160208033597281816040803359F28B128943778
S123012094281438143EB128143C143AB12894379C289438943EB128943C943AB128143947
S12301409339B128943918169915040B9515B1281434933894341339941D991D951D961DC8
S12301601A3C0C000E009330D128933C9336C028933A9A3C4E16CF15040B9B15C83B3329C6
S12301801B34D628033C9B131B34CB289B34CE281B35B828D6284B0BCF153329140BCF1553
S12301A033291432DF281A34DF281A38933E9B1DC83F063D13373329660B9E1533291331AE
S12301C01D29133D1337EF28133B9A3C1A3D4E16C915C83E063C100B9C15483B33291C3424
S12301E02229033C9C131C34FE289C3404291C350D299C3517291C36E4282229483F863CC5
S1230200400BCA15C83A3329483F863C400BCA15A11DA31D1A3EC83A3329483F863C010B56
S1230220CA15A2159A39A31D1A3EC83A3329C83E063C320BC915483B332994322D291A342F
S12302402D291A38133F9C1D483F863CC83E063C93363329660B9E15332993313329933DC1
S1230260933B660B9F150C000E0093323A29053905383F29C83F063D053D1333053C133309
S12302807229853905389C3448291C35592979291A3279291A3EA1191F0B211203305729FE
S12302A0C83E063C3D0B211203307929A11DC83A79291A3279291A3E9A316529020BA21FD3
S12302C07D0B221203349A3D6F29020B221203346D299A39020BA2156F29020BA212221682
S12302E0CA157929483FC83E863C063C853D9332053C1F16000803317F29853C80298538E0
S12303000C00380BC615000BC515851586158C15FF0B8B15E70B8D15800B8815050BC115A8
S1230320000BC315CB158115C0158F15C415380B8915000B8E15420BCC157D0BCD15CE1504
S1230340400BCF15C915CA15000BC215C715030BC8150C00100B84150E00801D84190416E2
S115036040080331AC290C007A0B9715CC3B8E3B0C001D
S3050000406258
S903FFFFFE
