S10500003028A2
S1130010A0150311A1150F3021280E3021280F3C03
S1230020B20B8115A719020B271203301A28A71D243BA438B119140B311203302128B11D79
S123004024394B302628CB3026284B3CD2302B2852302B28523C21118315A01120110D0035
S1230060AD218E3F7B2052217021612158218E3B3421550BAA15580BAA15320B2A1203303C
S123008043284F0BA2150E00B92049208F2039280C0024317928243D2316630803315728C6
S12300A0630B221203305728C83B06397928000B231703316228000B221703316228C83BFD
S12300C0063D79282216231203346A28C83FA3192316CF152316221003317128C83F2316AA
S12300E0CF152316221203347928C83FA31B2316CF150C000C0046380D3C8C3CC63C0C3DFF
S1230100463DC63A8D3A063D883B200BA515200BA815200BA915A71D4F0BA3150C00320BB6
S12301202A12033096284F0BA215B828300B2A1203309D28590BA215B8282C0B2A1203308D
S1230140A428630BA215B828290B2A120330AB284F0BA215B828270B2A120330B228310BAC
S1230160A215B828230B2A120330B828130BA2150C00A430F028C70B501E9C15100B1C175B
S1230180D0152B16D115640B9615000B7C219C1D88369C191C169D151D130330A43F033400
S12301A0A43B140B9615000B7C218832E028A433E028AC19060B2C120330E028050BAC1529
S12301C08836E528A437E528AC1B2C1605080331EF28AB1B2E16AF152B16AE15AC1DA43C8C
S12301E00C0024333329C70BD01E2516D115640B9615000B7C219A1D88369A191A169B1591
S12302001B130330A43F0334A43B140B9615000B7C2188321429A4331429A619790B261288
S123022003301429780BA61588361929A4371929A61B2616780803312929A51B200B2512CA
S123024003342429200BA5152816A9152516A815A61D28162912033030292816AA1532291D
S12302602916AA15243F0C00C70BD01E2516D115640B9615000B7C2188364D29A519370B36
S1230280251203304629360BA5154D292516D115640B9615000B7C213C292516A815251695
S12302A0A9150C00D03B503F503CFC0BD21E0C004C3BC83C483C473CC83B483FC83EC73C22
S12302C00C00E70BCC1EF80B4C1E9915010B1917CC15630BCE15630BCD15CC3BCB380C0043
S12302E0CB3FC13EF00B411E9915070B1917C115B20B81150E380C00991516169E159815F2
S123030019169F151E1698151F1699151816191703359C29000000000000000000001E16A3
S123032098151F169915FF0B981F0330991B18169E1519169F1582290C00010B9E151E1613
S12303409715000B17170335AC2900001E169715971B17169E159F290C00400B8415300B42
S11103608715841B801D871AB129871D0C0088
S3050000506248
S903FFFFFE
